{
  "contractName": "BuilderToken",
  "abi": [
    {
      "inputs": [
        {
          "internalType": "string",
          "name": "_name",
          "type": "string"
        },
        {
          "internalType": "string",
          "name": "_symbol",
          "type": "string"
        },
        {
          "internalType": "address",
          "name": "_dev",
          "type": "address"
        },
        {
          "internalType": "uint256",
          "name": "_supply",
          "type": "uint256"
        }
      ],
      "stateMutability": "nonpayable",
      "type": "constructor"
    },
    {
      "anonymous": false,
      "inputs": [
        {
          "indexed": true,
          "internalType": "address",
          "name": "owner",
          "type": "address"
        },
        {
          "indexed": true,
          "internalType": "address",
          "name": "spender",
          "type": "address"
        },
        {
          "indexed": false,
          "internalType": "uint256",
          "name": "value",
          "type": "uint256"
        }
      ],
      "name": "Approval",
      "type": "event"
    },
    {
      "anonymous": false,
      "inputs": [
        {
          "indexed": true,
          "internalType": "address",
          "name": "previousOwner",
          "type": "address"
        },
        {
          "indexed": true,
          "internalType": "address",
          "name": "newOwner",
          "type": "address"
        }
      ],
      "name": "OwnershipTransferred",
      "type": "event"
    },
    {
      "anonymous": false,
      "inputs": [
        {
          "indexed": false,
          "internalType": "address",
          "name": "account",
          "type": "address"
        }
      ],
      "name": "Paused",
      "type": "event"
    },
    {
      "anonymous": false,
      "inputs": [
        {
          "indexed": true,
          "internalType": "address",
          "name": "from",
          "type": "address"
        },
        {
          "indexed": true,
          "internalType": "address",
          "name": "to",
          "type": "address"
        },
        {
          "indexed": false,
          "internalType": "uint256",
          "name": "value",
          "type": "uint256"
        }
      ],
      "name": "Transfer",
      "type": "event"
    },
    {
      "anonymous": false,
      "inputs": [
        {
          "indexed": false,
          "internalType": "address",
          "name": "account",
          "type": "address"
        }
      ],
      "name": "Unpaused",
      "type": "event"
    },
    {
      "inputs": [
        {
          "internalType": "address",
          "name": "owner",
          "type": "address"
        },
        {
          "internalType": "address",
          "name": "spender",
          "type": "address"
        }
      ],
      "name": "allowance",
      "outputs": [
        {
          "internalType": "uint256",
          "name": "",
          "type": "uint256"
        }
      ],
      "stateMutability": "view",
      "type": "function"
    },
    {
      "inputs": [
        {
          "internalType": "address",
          "name": "spender",
          "type": "address"
        },
        {
          "internalType": "uint256",
          "name": "amount",
          "type": "uint256"
        }
      ],
      "name": "approve",
      "outputs": [
        {
          "internalType": "bool",
          "name": "",
          "type": "bool"
        }
      ],
      "stateMutability": "nonpayable",
      "type": "function"
    },
    {
      "inputs": [
        {
          "internalType": "address",
          "name": "account",
          "type": "address"
        }
      ],
      "name": "balanceOf",
      "outputs": [
        {
          "internalType": "uint256",
          "name": "",
          "type": "uint256"
        }
      ],
      "stateMutability": "view",
      "type": "function"
    },
    {
      "inputs": [],
      "name": "decimals",
      "outputs": [
        {
          "internalType": "uint8",
          "name": "",
          "type": "uint8"
        }
      ],
      "stateMutability": "view",
      "type": "function"
    },
    {
      "inputs": [
        {
          "internalType": "address",
          "name": "spender",
          "type": "address"
        },
        {
          "internalType": "uint256",
          "name": "subtractedValue",
          "type": "uint256"
        }
      ],
      "name": "decreaseAllowance",
      "outputs": [
        {
          "internalType": "bool",
          "name": "",
          "type": "bool"
        }
      ],
      "stateMutability": "nonpayable",
      "type": "function"
    },
    {
      "inputs": [
        {
          "internalType": "address",
          "name": "spender",
          "type": "address"
        },
        {
          "internalType": "uint256",
          "name": "addedValue",
          "type": "uint256"
        }
      ],
      "name": "increaseAllowance",
      "outputs": [
        {
          "internalType": "bool",
          "name": "",
          "type": "bool"
        }
      ],
      "stateMutability": "nonpayable",
      "type": "function"
    },
    {
      "inputs": [],
      "name": "name",
      "outputs": [
        {
          "internalType": "string",
          "name": "",
          "type": "string"
        }
      ],
      "stateMutability": "view",
      "type": "function"
    },
    {
      "inputs": [],
      "name": "owner",
      "outputs": [
        {
          "internalType": "address",
          "name": "",
          "type": "address"
        }
      ],
      "stateMutability": "view",
      "type": "function"
    },
    {
      "inputs": [],
      "name": "paused",
      "outputs": [
        {
          "internalType": "bool",
          "name": "",
          "type": "bool"
        }
      ],
      "stateMutability": "view",
      "type": "function"
    },
    {
      "inputs": [],
      "name": "renounceOwnership",
      "outputs": [],
      "stateMutability": "nonpayable",
      "type": "function"
    },
    {
      "inputs": [],
      "name": "symbol",
      "outputs": [
        {
          "internalType": "string",
          "name": "",
          "type": "string"
        }
      ],
      "stateMutability": "view",
      "type": "function"
    },
    {
      "inputs": [],
      "name": "totalSupply",
      "outputs": [
        {
          "internalType": "uint256",
          "name": "",
          "type": "uint256"
        }
      ],
      "stateMutability": "view",
      "type": "function"
    },
    {
      "inputs": [
        {
          "internalType": "address",
          "name": "recipient",
          "type": "address"
        },
        {
          "internalType": "uint256",
          "name": "amount",
          "type": "uint256"
        }
      ],
      "name": "transfer",
      "outputs": [
        {
          "internalType": "bool",
          "name": "",
          "type": "bool"
        }
      ],
      "stateMutability": "nonpayable",
      "type": "function"
    },
    {
      "inputs": [
        {
          "internalType": "address",
          "name": "sender",
          "type": "address"
        },
        {
          "internalType": "address",
          "name": "recipient",
          "type": "address"
        },
        {
          "internalType": "uint256",
          "name": "amount",
          "type": "uint256"
        }
      ],
      "name": "transferFrom",
      "outputs": [
        {
          "internalType": "bool",
          "name": "",
          "type": "bool"
        }
      ],
      "stateMutability": "nonpayable",
      "type": "function"
    },
    {
      "inputs": [
        {
          "internalType": "address",
          "name": "newOwner",
          "type": "address"
        }
      ],
      "name": "transferOwnership",
      "outputs": [],
      "stateMutability": "nonpayable",
      "type": "function"
    },
    {
      "inputs": [],
      "name": "togglePause",
      "outputs": [],
      "stateMutability": "nonpayable",
      "type": "function"
    },
    {
      "inputs": [
        {
          "internalType": "uint256",
          "name": "ammount",
          "type": "uint256"
        }
      ],
      "name": "burn",
      "outputs": [],
      "stateMutability": "nonpayable",
      "type": "function"
    }
  ],
  "bytecode": "0x60806040523480156200001157600080fd5b5060405162002cc938038062002cc983398181016040528101906200003791906200070a565b8383816003908051906020019062000051929190620005ba565b5080600490805190602001906200006a929190620005ba565b50505060006200007f6200016660201b60201c565b905080600560006101000a81548173ffffffffffffffffffffffffffffffffffffffff021916908373ffffffffffffffffffffffffffffffffffffffff1602179055508073ffffffffffffffffffffffffffffffffffffffff16600073ffffffffffffffffffffffffffffffffffffffff167f8be0079c531659141344cd1fd0a4f28419497f9722a3daafe3b4186f6b6457e060405160405180910390a3506000600560146101000a81548160ff0219169083151502179055506200014a826200016e60201b60201c565b6200015c82826200033060201b60201c565b5050505062000c69565b600033905090565b6200017e6200016660201b60201c565b73ffffffffffffffffffffffffffffffffffffffff16620001a46200049560201b60201c565b73ffffffffffffffffffffffffffffffffffffffff1614620001fd576040517f08c379a0000000000000000000000000000000000000000000000000000000008152600401620001f49062000899565b60405180910390fd5b600073ffffffffffffffffffffffffffffffffffffffff168173ffffffffffffffffffffffffffffffffffffffff16141562000270576040517f08c379a0000000000000000000000000000000000000000000000000000000008152600401620002679062000855565b60405180910390fd5b8073ffffffffffffffffffffffffffffffffffffffff16600560009054906101000a900473ffffffffffffffffffffffffffffffffffffffff1673ffffffffffffffffffffffffffffffffffffffff167f8be0079c531659141344cd1fd0a4f28419497f9722a3daafe3b4186f6b6457e060405160405180910390a380600560006101000a81548173ffffffffffffffffffffffffffffffffffffffff021916908373ffffffffffffffffffffffffffffffffffffffff16021790555050565b600073ffffffffffffffffffffffffffffffffffffffff168273ffffffffffffffffffffffffffffffffffffffff161415620003a3576040517f08c379a00000000000000000000000000000000000000000000000000000000081526004016200039a90620008bb565b60405180910390fd5b620003b760008383620004bf60201b60201c565b8060026000828254620003cb91906200096a565b92505081905550806000808473ffffffffffffffffffffffffffffffffffffffff1673ffffffffffffffffffffffffffffffffffffffff16815260200190815260200160002060008282546200042291906200096a565b925050819055508173ffffffffffffffffffffffffffffffffffffffff16600073ffffffffffffffffffffffffffffffffffffffff167fddf252ad1be2c89b69c2b068fc378daa952ba7f163c4a11628f55a4df523b3ef83604051620004899190620008dd565b60405180910390a35050565b6000600560009054906101000a900473ffffffffffffffffffffffffffffffffffffffff16905090565b620004cf620005a360201b60201c565b1580620005165750620004e76200049560201b60201c565b73ffffffffffffffffffffffffffffffffffffffff168373ffffffffffffffffffffffffffffffffffffffff16145b806200055c57506200052d6200049560201b60201c565b73ffffffffffffffffffffffffffffffffffffffff168273ffffffffffffffffffffffffffffffffffffffff16145b6200059e576040517f08c379a0000000000000000000000000000000000000000000000000000000008152600401620005959062000877565b60405180910390fd5b505050565b6000600560149054906101000a900460ff16905090565b828054620005c89062000a3b565b90600052602060002090601f016020900481019282620005ec576000855562000638565b82601f106200060757805160ff191683800117855562000638565b8280016001018555821562000638579182015b82811115620006375782518255916020019190600101906200061a565b5b5090506200064791906200064b565b5090565b5b80821115620006665760008160009055506001016200064c565b5090565b6000620006816200067b8462000923565b620008fa565b9050828152602081018484840111156200069a57600080fd5b620006a784828562000a05565b509392505050565b600081519050620006c08162000c35565b92915050565b600082601f830112620006d857600080fd5b8151620006ea8482602086016200066a565b91505092915050565b600081519050620007048162000c4f565b92915050565b600080600080608085870312156200072157600080fd5b600085015167ffffffffffffffff8111156200073c57600080fd5b6200074a87828801620006c6565b945050602085015167ffffffffffffffff8111156200076857600080fd5b6200077687828801620006c6565b93505060406200078987828801620006af565b92505060606200079c87828801620006f3565b91505092959194509250565b6000620007b760268362000959565b9150620007c48262000b45565b604082019050919050565b6000620007de602b8362000959565b9150620007eb8262000b94565b604082019050919050565b60006200080560208362000959565b9150620008128262000be3565b602082019050919050565b60006200082c601f8362000959565b9150620008398262000c0c565b602082019050919050565b6200084f81620009fb565b82525050565b600060208201905081810360008301526200087081620007a8565b9050919050565b600060208201905081810360008301526200089281620007cf565b9050919050565b60006020820190508181036000830152620008b481620007f6565b9050919050565b60006020820190508181036000830152620008d6816200081d565b9050919050565b6000602082019050620008f4600083018462000844565b92915050565b60006200090662000919565b905062000914828262000a71565b919050565b6000604051905090565b600067ffffffffffffffff82111562000941576200094062000b05565b5b6200094c8262000b34565b9050602081019050919050565b600082825260208201905092915050565b60006200097782620009fb565b91506200098483620009fb565b9250827fffffffffffffffffffffffffffffffffffffffffffffffffffffffffffffffff03821115620009bc57620009bb62000aa7565b5b828201905092915050565b6000620009d482620009db565b9050919050565b600073ffffffffffffffffffffffffffffffffffffffff82169050919050565b6000819050919050565b60005b8381101562000a2557808201518184015260208101905062000a08565b8381111562000a35576000848401525b50505050565b6000600282049050600182168062000a5457607f821691505b6020821081141562000a6b5762000a6a62000ad6565b5b50919050565b62000a7c8262000b34565b810181811067ffffffffffffffff8211171562000a9e5762000a9d62000b05565b5b80604052505050565b7f4e487b7100000000000000000000000000000000000000000000000000000000600052601160045260246000fd5b7f4e487b7100000000000000000000000000000000000000000000000000000000600052602260045260246000fd5b7f4e487b7100000000000000000000000000000000000000000000000000000000600052604160045260246000fd5b6000601f19601f8301169050919050565b7f4f776e61626c653a206e6577206f776e657220697320746865207a65726f206160008201527f6464726573730000000000000000000000000000000000000000000000000000602082015250565b7f5768656e20706175736564207472616e7366657273206d75737420626520746f60008201527f2f66726f6d206f776e6572000000000000000000000000000000000000000000602082015250565b7f4f776e61626c653a2063616c6c6572206973206e6f7420746865206f776e6572600082015250565b7f45524332303a206d696e7420746f20746865207a65726f206164647265737300600082015250565b62000c4081620009c7565b811462000c4c57600080fd5b50565b62000c5a81620009fb565b811462000c6657600080fd5b50565b6120508062000c796000396000f3fe608060405234801561001057600080fd5b506004361061010b5760003560e01c806370a08231116100a2578063a457c2d711610071578063a457c2d7146102aa578063a9059cbb146102da578063c4ae31681461030a578063dd62ed3e14610314578063f2fde38b146103445761010b565b806370a0823114610234578063715018a6146102645780638da5cb5b1461026e57806395d89b411461028c5761010b565b8063313ce567116100de578063313ce567146101ac57806339509351146101ca57806342966c68146101fa5780635c975abb146102165761010b565b806306fdde0314610110578063095ea7b31461012e57806318160ddd1461015e57806323b872dd1461017c575b600080fd5b610118610360565b6040516101259190611825565b60405180910390f35b6101486004803603810190610143919061152b565b6103f2565b604051610155919061180a565b60405180910390f35b610166610410565b6040516101739190611a07565b60405180910390f35b610196600480360381019061019191906114dc565b61041a565b6040516101a3919061180a565b60405180910390f35b6101b461051b565b6040516101c19190611a22565b60405180910390f35b6101e460048036038101906101df919061152b565b610524565b6040516101f1919061180a565b60405180910390f35b610214600480360381019061020f9190611567565b6105d0565b005b61021e6105dd565b60405161022b919061180a565b60405180910390f35b61024e60048036038101906102499190611477565b6105f4565b60405161025b9190611a07565b60405180910390f35b61026c61063c565b005b610276610779565b60405161028391906117ef565b60405180910390f35b6102946107a3565b6040516102a19190611825565b60405180910390f35b6102c460048036038101906102bf919061152b565b610835565b6040516102d1919061180a565b60405180910390f35b6102f460048036038101906102ef919061152b565b610929565b604051610301919061180a565b60405180910390f35b610312610947565b005b61032e600480360381019061032991906114a0565b6109e8565b60405161033b9190611a07565b60405180910390f35b61035e60048036038101906103599190611477565b610a6f565b005b60606003805461036f90611b6b565b80601f016020809104026020016040519081016040528092919081815260200182805461039b90611b6b565b80156103e85780601f106103bd576101008083540402835291602001916103e8565b820191906000526020600020905b8154815290600101906020018083116103cb57829003601f168201915b5050505050905090565b60006104066103ff610c1b565b8484610c23565b6001905092915050565b6000600254905090565b6000610427848484610dee565b6000600160008673ffffffffffffffffffffffffffffffffffffffff1673ffffffffffffffffffffffffffffffffffffffff1681526020019081526020016000206000610472610c1b565b73ffffffffffffffffffffffffffffffffffffffff1673ffffffffffffffffffffffffffffffffffffffff168152602001908152602001600020549050828110156104f2576040517f08c379a00000000000000000000000000000000000000000000000000000000081526004016104e990611947565b60405180910390fd5b61050f856104fe610c1b565b858461050a9190611aaf565b610c23565b60019150509392505050565b60006012905090565b60006105c6610531610c1b565b84846001600061053f610c1b565b73ffffffffffffffffffffffffffffffffffffffff1673ffffffffffffffffffffffffffffffffffffffff16815260200190815260200160002060008873ffffffffffffffffffffffffffffffffffffffff1673ffffffffffffffffffffffffffffffffffffffff168152602001908152602001600020546105c19190611a59565b610c23565b6001905092915050565b6105da338261106d565b50565b6000600560149054906101000a900460ff16905090565b60008060008373ffffffffffffffffffffffffffffffffffffffff1673ffffffffffffffffffffffffffffffffffffffff168152602001908152602001600020549050919050565b610644610c1b565b73ffffffffffffffffffffffffffffffffffffffff16610662610779565b73ffffffffffffffffffffffffffffffffffffffff16146106b8576040517f08c379a00000000000000000000000000000000000000000000000000000000081526004016106af90611967565b60405180910390fd5b600073ffffffffffffffffffffffffffffffffffffffff16600560009054906101000a900473ffffffffffffffffffffffffffffffffffffffff1673ffffffffffffffffffffffffffffffffffffffff167f8be0079c531659141344cd1fd0a4f28419497f9722a3daafe3b4186f6b6457e060405160405180910390a36000600560006101000a81548173ffffffffffffffffffffffffffffffffffffffff021916908373ffffffffffffffffffffffffffffffffffffffff160217905550565b6000600560009054906101000a900473ffffffffffffffffffffffffffffffffffffffff16905090565b6060600480546107b290611b6b565b80601f01602080910402602001604051908101604052809291908181526020018280546107de90611b6b565b801561082b5780601f106108005761010080835404028352916020019161082b565b820191906000526020600020905b81548152906001019060200180831161080e57829003601f168201915b5050505050905090565b60008060016000610844610c1b565b73ffffffffffffffffffffffffffffffffffffffff1673ffffffffffffffffffffffffffffffffffffffff16815260200190815260200160002060008573ffffffffffffffffffffffffffffffffffffffff1673ffffffffffffffffffffffffffffffffffffffff16815260200190815260200160002054905082811015610901576040517f08c379a00000000000000000000000000000000000000000000000000000000081526004016108f8906119e7565b60405180910390fd5b61091e61090c610c1b565b8585846109199190611aaf565b610c23565b600191505092915050565b600061093d610936610c1b565b8484610dee565b6001905092915050565b61094f610c1b565b73ffffffffffffffffffffffffffffffffffffffff1661096d610779565b73ffffffffffffffffffffffffffffffffffffffff16146109c3576040517f08c379a00000000000000000000000000000000000000000000000000000000081526004016109ba90611967565b60405180910390fd5b6109cb6105dd565b156109dd576109d8611241565b6109e6565b6109e56112e3565b5b565b6000600160008473ffffffffffffffffffffffffffffffffffffffff1673ffffffffffffffffffffffffffffffffffffffff16815260200190815260200160002060008373ffffffffffffffffffffffffffffffffffffffff1673ffffffffffffffffffffffffffffffffffffffff16815260200190815260200160002054905092915050565b610a77610c1b565b73ffffffffffffffffffffffffffffffffffffffff16610a95610779565b73ffffffffffffffffffffffffffffffffffffffff1614610aeb576040517f08c379a0000000000000000000000000000000000000000000000000000000008152600401610ae290611967565b60405180910390fd5b600073ffffffffffffffffffffffffffffffffffffffff168173ffffffffffffffffffffffffffffffffffffffff161415610b5b576040517f08c379a0000000000000000000000000000000000000000000000000000000008152600401610b52906118a7565b60405180910390fd5b8073ffffffffffffffffffffffffffffffffffffffff16600560009054906101000a900473ffffffffffffffffffffffffffffffffffffffff1673ffffffffffffffffffffffffffffffffffffffff167f8be0079c531659141344cd1fd0a4f28419497f9722a3daafe3b4186f6b6457e060405160405180910390a380600560006101000a81548173ffffffffffffffffffffffffffffffffffffffff021916908373ffffffffffffffffffffffffffffffffffffffff16021790555050565b600033905090565b600073ffffffffffffffffffffffffffffffffffffffff168373ffffffffffffffffffffffffffffffffffffffff161415610c93576040517f08c379a0000000000000000000000000000000000000000000000000000000008152600401610c8a906119c7565b60405180910390fd5b600073ffffffffffffffffffffffffffffffffffffffff168273ffffffffffffffffffffffffffffffffffffffff161415610d03576040517f08c379a0000000000000000000000000000000000000000000000000000000008152600401610cfa906118c7565b60405180910390fd5b80600160008573ffffffffffffffffffffffffffffffffffffffff1673ffffffffffffffffffffffffffffffffffffffff16815260200190815260200160002060008473ffffffffffffffffffffffffffffffffffffffff1673ffffffffffffffffffffffffffffffffffffffff168152602001908152602001600020819055508173ffffffffffffffffffffffffffffffffffffffff168373ffffffffffffffffffffffffffffffffffffffff167f8c5be1e5ebec7d5bd14f71427d1e84f3dd0314c0f7b2291e5b200ac8c7c3b92583604051610de19190611a07565b60405180910390a3505050565b600073ffffffffffffffffffffffffffffffffffffffff168373ffffffffffffffffffffffffffffffffffffffff161415610e5e576040517f08c379a0000000000000000000000000000000000000000000000000000000008152600401610e55906119a7565b60405180910390fd5b600073ffffffffffffffffffffffffffffffffffffffff168273ffffffffffffffffffffffffffffffffffffffff161415610ece576040517f08c379a0000000000000000000000000000000000000000000000000000000008152600401610ec590611847565b60405180910390fd5b610ed9838383611386565b60008060008573ffffffffffffffffffffffffffffffffffffffff1673ffffffffffffffffffffffffffffffffffffffff16815260200190815260200160002054905081811015610f5f576040517f08c379a0000000000000000000000000000000000000000000000000000000008152600401610f56906118e7565b60405180910390fd5b8181610f6b9190611aaf565b6000808673ffffffffffffffffffffffffffffffffffffffff1673ffffffffffffffffffffffffffffffffffffffff16815260200190815260200160002081905550816000808573ffffffffffffffffffffffffffffffffffffffff1673ffffffffffffffffffffffffffffffffffffffff1681526020019081526020016000206000828254610ffb9190611a59565b925050819055508273ffffffffffffffffffffffffffffffffffffffff168473ffffffffffffffffffffffffffffffffffffffff167fddf252ad1be2c89b69c2b068fc378daa952ba7f163c4a11628f55a4df523b3ef8460405161105f9190611a07565b60405180910390a350505050565b600073ffffffffffffffffffffffffffffffffffffffff168273ffffffffffffffffffffffffffffffffffffffff1614156110dd576040517f08c379a00000000000000000000000000000000000000000000000000000000081526004016110d490611987565b60405180910390fd5b6110e982600083611386565b60008060008473ffffffffffffffffffffffffffffffffffffffff1673ffffffffffffffffffffffffffffffffffffffff1681526020019081526020016000205490508181101561116f576040517f08c379a000000000000000000000000000000000000000000000000000000000815260040161116690611887565b60405180910390fd5b818161117b9190611aaf565b6000808573ffffffffffffffffffffffffffffffffffffffff1673ffffffffffffffffffffffffffffffffffffffff1681526020019081526020016000208190555081600260008282546111cf9190611aaf565b92505081905550600073ffffffffffffffffffffffffffffffffffffffff168373ffffffffffffffffffffffffffffffffffffffff167fddf252ad1be2c89b69c2b068fc378daa952ba7f163c4a11628f55a4df523b3ef846040516112349190611a07565b60405180910390a3505050565b6112496105dd565b611288576040517f08c379a000000000000000000000000000000000000000000000000000000000815260040161127f90611867565b60405180910390fd5b6000600560146101000a81548160ff0219169083151502179055507f5db9ee0a495bf2e6ff9c91a7834c1ba4fdd244a5e8aa4e537bd38aeae4b073aa6112cc610c1b565b6040516112d991906117ef565b60405180910390a1565b6112eb6105dd565b1561132b576040517f08c379a000000000000000000000000000000000000000000000000000000000815260040161132290611907565b60405180910390fd5b6001600560146101000a81548160ff0219169083151502179055507f62e78cea01bee320cd4e420270b5ea74000d11b0c9f74754ebdbfc544b05a25861136f610c1b565b60405161137c91906117ef565b60405180910390a1565b61138e6105dd565b15806113cc575061139d610779565b73ffffffffffffffffffffffffffffffffffffffff168373ffffffffffffffffffffffffffffffffffffffff16145b8061140957506113da610779565b73ffffffffffffffffffffffffffffffffffffffff168273ffffffffffffffffffffffffffffffffffffffff16145b611448576040517f08c379a000000000000000000000000000000000000000000000000000000000815260040161143f90611927565b60405180910390fd5b505050565b60008135905061145c81611fec565b92915050565b60008135905061147181612003565b92915050565b60006020828403121561148957600080fd5b60006114978482850161144d565b91505092915050565b600080604083850312156114b357600080fd5b60006114c18582860161144d565b92505060206114d28582860161144d565b9150509250929050565b6000806000606084860312156114f157600080fd5b60006114ff8682870161144d565b93505060206115108682870161144d565b925050604061152186828701611462565b9150509250925092565b6000806040838503121561153e57600080fd5b600061154c8582860161144d565b925050602061155d85828601611462565b9150509250929050565b60006020828403121561157957600080fd5b600061158784828501611462565b91505092915050565b61159981611ae3565b82525050565b6115a881611af5565b82525050565b60006115b982611a3d565b6115c38185611a48565b93506115d3818560208601611b38565b6115dc81611bfb565b840191505092915050565b60006115f4602383611a48565b91506115ff82611c0c565b604082019050919050565b6000611617601483611a48565b915061162282611c5b565b602082019050919050565b600061163a602283611a48565b915061164582611c84565b604082019050919050565b600061165d602683611a48565b915061166882611cd3565b604082019050919050565b6000611680602283611a48565b915061168b82611d22565b604082019050919050565b60006116a3602683611a48565b91506116ae82611d71565b604082019050919050565b60006116c6601083611a48565b91506116d182611dc0565b602082019050919050565b60006116e9602b83611a48565b91506116f482611de9565b604082019050919050565b600061170c602883611a48565b915061171782611e38565b604082019050919050565b600061172f602083611a48565b915061173a82611e87565b602082019050919050565b6000611752602183611a48565b915061175d82611eb0565b604082019050919050565b6000611775602583611a48565b915061178082611eff565b604082019050919050565b6000611798602483611a48565b91506117a382611f4e565b604082019050919050565b60006117bb602583611a48565b91506117c682611f9d565b604082019050919050565b6117da81611b21565b82525050565b6117e981611b2b565b82525050565b60006020820190506118046000830184611590565b92915050565b600060208201905061181f600083018461159f565b92915050565b6000602082019050818103600083015261183f81846115ae565b905092915050565b60006020820190508181036000830152611860816115e7565b9050919050565b600060208201905081810360008301526118808161160a565b9050919050565b600060208201905081810360008301526118a08161162d565b9050919050565b600060208201905081810360008301526118c081611650565b9050919050565b600060208201905081810360008301526118e081611673565b9050919050565b6000602082019050818103600083015261190081611696565b9050919050565b60006020820190508181036000830152611920816116b9565b9050919050565b60006020820190508181036000830152611940816116dc565b9050919050565b60006020820190508181036000830152611960816116ff565b9050919050565b6000602082019050818103600083015261198081611722565b9050919050565b600060208201905081810360008301526119a081611745565b9050919050565b600060208201905081810360008301526119c081611768565b9050919050565b600060208201905081810360008301526119e08161178b565b9050919050565b60006020820190508181036000830152611a00816117ae565b9050919050565b6000602082019050611a1c60008301846117d1565b92915050565b6000602082019050611a3760008301846117e0565b92915050565b600081519050919050565b600082825260208201905092915050565b6000611a6482611b21565b9150611a6f83611b21565b9250827fffffffffffffffffffffffffffffffffffffffffffffffffffffffffffffffff03821115611aa457611aa3611b9d565b5b828201905092915050565b6000611aba82611b21565b9150611ac583611b21565b925082821015611ad857611ad7611b9d565b5b828203905092915050565b6000611aee82611b01565b9050919050565b60008115159050919050565b600073ffffffffffffffffffffffffffffffffffffffff82169050919050565b6000819050919050565b600060ff82169050919050565b60005b83811015611b56578082015181840152602081019050611b3b565b83811115611b65576000848401525b50505050565b60006002820490506001821680611b8357607f821691505b60208210811415611b9757611b96611bcc565b5b50919050565b7f4e487b7100000000000000000000000000000000000000000000000000000000600052601160045260246000fd5b7f4e487b7100000000000000000000000000000000000000000000000000000000600052602260045260246000fd5b6000601f19601f8301169050919050565b7f45524332303a207472616e7366657220746f20746865207a65726f206164647260008201527f6573730000000000000000000000000000000000000000000000000000000000602082015250565b7f5061757361626c653a206e6f7420706175736564000000000000000000000000600082015250565b7f45524332303a206275726e20616d6f756e7420657863656564732062616c616e60008201527f6365000000000000000000000000000000000000000000000000000000000000602082015250565b7f4f776e61626c653a206e6577206f776e657220697320746865207a65726f206160008201527f6464726573730000000000000000000000000000000000000000000000000000602082015250565b7f45524332303a20617070726f766520746f20746865207a65726f20616464726560008201527f7373000000000000000000000000000000000000000000000000000000000000602082015250565b7f45524332303a207472616e7366657220616d6f756e742065786365656473206260008201527f616c616e63650000000000000000000000000000000000000000000000000000602082015250565b7f5061757361626c653a2070617573656400000000000000000000000000000000600082015250565b7f5768656e20706175736564207472616e7366657273206d75737420626520746f60008201527f2f66726f6d206f776e6572000000000000000000000000000000000000000000602082015250565b7f45524332303a207472616e7366657220616d6f756e742065786365656473206160008201527f6c6c6f77616e6365000000000000000000000000000000000000000000000000602082015250565b7f4f776e61626c653a2063616c6c6572206973206e6f7420746865206f776e6572600082015250565b7f45524332303a206275726e2066726f6d20746865207a65726f2061646472657360008201527f7300000000000000000000000000000000000000000000000000000000000000602082015250565b7f45524332303a207472616e736665722066726f6d20746865207a65726f20616460008201527f6472657373000000000000000000000000000000000000000000000000000000602082015250565b7f45524332303a20617070726f76652066726f6d20746865207a65726f2061646460008201527f7265737300000000000000000000000000000000000000000000000000000000602082015250565b7f45524332303a2064656372656173656420616c6c6f77616e63652062656c6f7760008201527f207a65726f000000000000000000000000000000000000000000000000000000602082015250565b611ff581611ae3565b811461200057600080fd5b50565b61200c81611b21565b811461201757600080fd5b5056fea2646970667358221220efe569051b920334e6345c619a0f0718f1015b55857508d52c1bbe0dd838f65464736f6c63430008040033",
  "immutableReferences": {},
  "source": "// SPDX-License-Identifier: None\npragma solidity ^0.8.0;\n\nimport \"@openzeppelin/contracts/access/Ownable.sol\";\nimport \"@openzeppelin/contracts/token/ERC20/ERC20.sol\";\nimport \"@openzeppelin/contracts/security/Pausable.sol\";\n\n/**\n* @title Builder Toke\n* @author Carson Case (carsonpcase@gmail.com)\n* @notice Pausable ERC20 token. Where transfers are not possible when paused with the exception of the owner\n */\ncontract BuilderToken is ERC20, Ownable, Pausable{\n\n    /**\n    * @notice Constructor\n    * @param _name ERC20 name\n    * @param _symbol ERC20 symbol\n    * @param _supply FIXED. Initial supply to mint to contract deployer\n     */\n    constructor(\n    string memory _name,\n    string memory _symbol,\n    address _dev,\n    uint _supply\n    )\n    ERC20(_name, _symbol)\n    Ownable()\n    Pausable()\n    {\n        transferOwnership(_dev);\n        _mint(_dev, _supply);\n    }\n\n    /**\n    * @notice Only for owner to call. Toggles pause\n     */\n    function togglePause() external onlyOwner{\n        if(paused()){\n            _unpause();\n        }else{\n            _pause();\n        }\n    }\n\n    /**\n    * @notice anyone can burn tokens\n    * @param ammount to burn\n     */\n    function burn(uint ammount)external{\n        _burn(msg.sender,ammount);\n    }\n\n    /**\n    * @dev ERC20 transfer hook checks if token is paused OR if sender is owner. If owner it doesn't matter\n     */\n    function _beforeTokenTransfer(address from, address to, uint amount) internal override{\n        require(\n            !paused() ||\n            from == owner() ||\n            to ==owner(),\n            \"When paused transfers must be to/from owner\"\n        );\n    }\n\n}",
  "sourcePath": "/home/carsoncase/Documents/programming/blockchain/Maxos/builderToken/contracts/BuilderToken.sol",
  "compiler": {
    "name": "solc",
    "version": "0.8.4+commit.c7e474f2.Emscripten.clang"
  },
  "schemaVersion": "3.4.1",
  "updatedAt": "2021-05-31T04:02:43.217Z",
  "networkType": "ethereum",
  "devdoc": {
    "author": "Carson Case (carsonpcase@gmail.com)",
    "kind": "dev",
    "methods": {
      "allowance(address,address)": {
        "details": "See {IERC20-allowance}."
      },
      "approve(address,uint256)": {
        "details": "See {IERC20-approve}. Requirements: - `spender` cannot be the zero address."
      },
      "balanceOf(address)": {
        "details": "See {IERC20-balanceOf}."
      },
      "burn(uint256)": {
        "params": {
          "ammount": "to burn"
        }
      },
      "constructor": {
        "params": {
          "_name": "ERC20 name",
          "_supply": "FIXED. Initial supply to mint to contract deployer",
          "_symbol": "ERC20 symbol"
        }
      },
      "decimals()": {
        "details": "Returns the number of decimals used to get its user representation. For example, if `decimals` equals `2`, a balance of `505` tokens should be displayed to a user as `5,05` (`505 / 10 ** 2`). Tokens usually opt for a value of 18, imitating the relationship between Ether and Wei. This is the value {ERC20} uses, unless this function is overridden; NOTE: This information is only used for _display_ purposes: it in no way affects any of the arithmetic of the contract, including {IERC20-balanceOf} and {IERC20-transfer}."
      },
      "decreaseAllowance(address,uint256)": {
        "details": "Atomically decreases the allowance granted to `spender` by the caller. This is an alternative to {approve} that can be used as a mitigation for problems described in {IERC20-approve}. Emits an {Approval} event indicating the updated allowance. Requirements: - `spender` cannot be the zero address. - `spender` must have allowance for the caller of at least `subtractedValue`."
      },
      "increaseAllowance(address,uint256)": {
        "details": "Atomically increases the allowance granted to `spender` by the caller. This is an alternative to {approve} that can be used as a mitigation for problems described in {IERC20-approve}. Emits an {Approval} event indicating the updated allowance. Requirements: - `spender` cannot be the zero address."
      },
      "name()": {
        "details": "Returns the name of the token."
      },
      "owner()": {
        "details": "Returns the address of the current owner."
      },
      "paused()": {
        "details": "Returns true if the contract is paused, and false otherwise."
      },
      "renounceOwnership()": {
        "details": "Leaves the contract without owner. It will not be possible to call `onlyOwner` functions anymore. Can only be called by the current owner. NOTE: Renouncing ownership will leave the contract without an owner, thereby removing any functionality that is only available to the owner."
      },
      "symbol()": {
        "details": "Returns the symbol of the token, usually a shorter version of the name."
      },
      "totalSupply()": {
        "details": "See {IERC20-totalSupply}."
      },
      "transfer(address,uint256)": {
        "details": "See {IERC20-transfer}. Requirements: - `recipient` cannot be the zero address. - the caller must have a balance of at least `amount`."
      },
      "transferFrom(address,address,uint256)": {
        "details": "See {IERC20-transferFrom}. Emits an {Approval} event indicating the updated allowance. This is not required by the EIP. See the note at the beginning of {ERC20}. Requirements: - `sender` and `recipient` cannot be the zero address. - `sender` must have a balance of at least `amount`. - the caller must have allowance for ``sender``'s tokens of at least `amount`."
      },
      "transferOwnership(address)": {
        "details": "Transfers ownership of the contract to a new account (`newOwner`). Can only be called by the current owner."
      }
    },
    "title": "Builder Toke",
    "version": 1
  },
  "userdoc": {
    "kind": "user",
    "methods": {
      "burn(uint256)": {
        "notice": "anyone can burn tokens"
      },
      "constructor": {
        "notice": "Constructor"
      },
      "togglePause()": {
        "notice": "Only for owner to call. Toggles pause"
      }
    },
    "notice": "Pausable ERC20 token. Where transfers are not possible when paused with the exception of the owner",
    "version": 1
  }
}